:020000040800F2
:1000000000000320790F0008A50B0008AB0B0008C7
:10001000B10B0008B70B0008BD0B00080000000082
:100020000000000000000000000000008112000835
:10003000C30B000800000000D1140008CD0F000819
:10004000C90F0008C90F0008C90F0008C90F000830
:10005000C90F0008C90F0008C90F0008C90F000820
:10006000C90F0008C90F0008C90F0008C90F000810
:10007000C90F0008C90F0008C90F0008C90F000800
:10008000C90F0008C90F0008C90F0008C90F0008F0
:10009000C90F0008C90F0008C90F0008C90F0008E0
:1000A000C90F0008D10B0008C90F0008C90F0008CC
:1000B000C90F0008C90F0008C90F0008C90F0008C0
:1000C000C90F0008C90F0008C90F0008C90F0008B0
:1000D000C90F0008C90F0008C90F0008C90F0008A0
:1000E000C90F0008C90F0008C90F0008C90F000890
:1000F000C90F0008C90F0008C90F0008C90F000880
:10010000C90F0008C90F0008C90F0008C90F00086F
:10011000C90F0008C90F0008C90F0008C90F00085F
:10012000C90F0008C90F0008C90F0008C90F00084F
:10013000C90F0008C90F0008C90F0008C90F00083F
:10014000C90F0008C90F0008C90F0008C90F00082F
:10015000C90F0008C90F0008C90F0008C90F00081F
:10016000C90F0008C90F0008C90F0008C90F00080F
:10017000C90F0008C90F0008C90F000800000000DF
:10018000C90F0008C90F0008C90F0008C90F0008EF
:10019000C90F0008C90F0008C90F0008C90F0008DF
:0C01A000C90F0008C90F0008C90F0008B3
:1001B00010B5054C237833B9044B13B10448AFF3A1
:1001C00000800123237010BD6C000020000000009F
:1001D0003892000808B5034B1BB103490348AFF33D
:1001E000008008BD00000000700000203892000868
:1001F00053B94AB9002908BF00281CBF4FF0FF318E
:100200004FF0FF3000F06AB9ADF1080C6DE904CE93
:1002100000F006F8DDF804E0DDE9022304B07047E1
:100220002DE9F047089D0C46002B4ED194468C4595
:100230008646B2FA82F262D94AB1C2F120039140F5
:1002400020FA03F30CFA02FC194300FA02FE4FEA0B
:100250001C471FFA8CF6B1FBF7F44FEA1E4307FB6D
:10026000141143EA014304FB06F199420AD91CEB3D
:10027000030304F1FF3080F01281994240F20F81B4
:10028000023C6344591A1FFA8EF3B1FBF7F007FBE7
:10029000101143EA014300FB06F69E420AD91CEB0B
:1002A000030300F1FF3180F0FC809E4240F2F980B0
:1002B000634402389B1B40EA044000211DB1D34037
:1002C0000022C5E90032BDE8F0878B4205D90DB1A7
:1002D000C5E9000100210846F5E7B3FA83F10029DA
:1002E00046D1A34202D39042C0F0F080861A64EB5C
:1002F00003030120002DE6D0C5E90063E3E7002AEF
:1003000040F09080A1EB0C044FEA1C481FFA8CF7D8
:100310000121B4FBF8F64FEA1E4308FB164443EAFA
:10032000044307FB06F0984208D91CEB030306F1CF
:10033000FF3402D2984200F2CD8026461C1A1FFAE2
:100340008EF3B4FBF8F008FB104443EA044300FBCF
:1003500007F79F4208D91CEB030300F1FF3402D2D8
:100360009F4200F2B0802046DB1B40EA0640A5E732
:10037000C1F120068B4022FA06F71F4320FA06FC43
:1003800004FA01F343EA0C03F44000FA01F8380CD4
:100390004FEA1349B4FBF0FE1FFA87FC00FB1E4432
:1003A00049EA04440EFB0CF9A14502FA01F20AD90C
:1003B0003C190EF1FF3A80F08480A14540F2818023
:1003C000AEF1020E3C44A4EB09041FFA83F9B4FB1E
:1003D000F0F300FB134449EA044403FB0CFCA4457E
:1003E00007D93C1903F1FF3067D2A44565D9023B18
:1003F0003C4443EA0E40A0FB0293A4EB0C049C4255
:10040000CE469C4651D34ED055B1B8EB0E0364EBAB
:100410000C0404FA06F6CB401E43CC40C5E9006448
:10042000002150E7C2F1200320FA03F10CFA02FC8C
:1004300024FA03F394400C434FEA1C4800FA02FEEE
:100440001FFA8CF7B3FBF8F008FB1031230C43EADA
:10045000014300FB07F1994208D91CEB030300F1AB
:10046000FF362CD299422AD9023863445B1AA4B2CF
:10047000B3FBF8F108FB113344EA034401FB07F333
:10048000A34208D91CEB040401F1FF3613D2A342A6
:1004900011D902396444E41A41EA004139E70446BB
:1004A000F0E6084606E7C845AED2B9EB020E63EBAC
:1004B000070C0138A8E73146EDE7034699E73046D7
:1004C000D4E7D6467FE7634402384DE70646234625
:1004D00008460FE7023E634430E700BF704700BFA5
:1004E00001F0FF01102A2BDB10F0070F08D010F8E5
:1004F000013B013A8B422DD010F0070F42B3F6D1E9
:10050000F0B441EA012141EA014122F007047FF001
:1005100000070023F0E80256083C85EA010586EA58
:10052000010685FA47F5A3FA87F586FA47F6A5FA94
:1005300087F68EB9EED1F0BC01F0FF0102F00702A0
:1005400032B110F8013B013A83EA010313B1F8D14B
:100550000020704701387047002D06BF354603382C
:10056000073815F0010F07D1013015F4807F02BF65
:10057000013015F4C03F0130F0BC0138704700BFB6
:1005800080B58CB000AF07F11C0300221A605A60DE
:100590009A60DA601A610023BB613C4B1B6B3B4ADB
:1005A00043F004031363394B1B6B03F00403BB617B
:1005B000BB6900237B61354B1B6B344A43F08003DE
:1005C0001363324B1B6B03F080037B617B69002359
:1005D0003B612E4B1B6B2D4A43F0200313632B4BC7
:1005E0001B6B03F020033B613B690023FB60274B3F
:1005F0001B6B264A43F002031363244B1B6B03F06F
:100600000203FB60FB680023BB60204B1B6B1F4A8F
:1006100043F0080313631D4B1B6B03F00803BB601F
:10062000BB6800237B60194B1B6B184A43F0010326
:100630001363164B1B6B03F001037B607B68002286
:100640004FF48141124803F009FC4FF48053FB61E1
:1006500000233B6200237B6207F11C0319460D480F
:1006600003F038FA4FF48143FB6101233B6200231E
:100670007B620023BB6207F11C031946044803F0A8
:1006800029FA00BF3037BD4680BD00BF00380240A8
:10069000000402400014024080B500AF1B4B1C4A0E
:1006A0001A601A4B1B4A5A60184B00229A60174B6B
:1006B0000022DA60154B4FF480421A61134B00227E
:1006C0005A61124B00229A61104B0022DA610F4BE3
:1006D00000221A620D4803F055FC0346002B01D09E
:1006E00000F0BAF90021094803F0D1FB0346002BC2
:1006F00001D000F0B1F90021044803F004FC0346E6
:10070000002B01D000F0A8F900BF80BD88000020B8
:1007100000540040801A060080B58AB000AF7860AF
:1007200007F1140300221A605A609A60DA601A61B5
:100730007B681B68194A93422CD100233B61184BFC
:100740001B6B174A43F002031363154B1B6B03F03B
:1007500002033B613B694FF440737B611223BB6131
:100760000023FB6103233B6204237B6207F1140334
:1007700019460C4803F0AEF90023FB60084B1B6CD4
:10078000074A43F400131364054B1B6C03F4001376
:10079000FB60FB6800BF2837BD4680BD00540040A9
:1007A000003802400004024080B590B002AF78608B
:1007B0002E4805F029FF2D4805F044FF2B4806F090
:1007C0001CF82B49294806F0EDFD2A4B1B6807F160
:1007D00008010022184601F001FC78637B6B012BB5
:1007E00038D13B7A1A467B7A07F1200000931346F2
:1007F000214A142107F01CFEBB7A1A46FB7A07F146
:100800000C00009313461D4A142107F011FE1748EF
:1008100005F018FF07F1200314220021134806F009
:100820001FFD07F10C0328220021104806F018FDD7
:100830000E4805F07AFFBB7A3B2B05D901228021B7
:100840000F4803F00BFB0DE0002280210C4803F061
:1008500005FB07E00B4B4FF080521A60BFF34F8F40
:10086000BFF36F8F642001F0A9FFAEE7E80000201E
:10087000C4920008DC00002050920008609200083A
:100880000004024004ED00E080B584B000AF786061
:1008900001224FF480410F4803F0E0FA07F10C0306
:1008A000184605F049FD0346002B07D10A4B18688E
:1008B00007F10C010023002201F0F6F900224FF4A9
:1008C0008041044803F0CAFA40F6B83001F076FFE0
:1008D000DEE700BF00040240DC00002080B582B0EB
:1008E00002AF05F0F1FB00F03BF8FFF749FE00F026
:1008F0002FFA00F099FAFFF7CFFE0022042103201F
:1009000001F074F903460E4A13600E4B0193012364
:10091000009300234FF480720B490C4801F009FE4C
:100920000B4B0193022300930023802209490A48BC
:1009300001F0FFFD094807F073FD01F073FFFEE7CA
:10094000DC000020E400002070920008A9070008E5
:10095000E0000020789200088908000880920008D2
:1009600080B594B000AF07F1200330220021184673
:1009700007F06AFE07F10C0300221A605A609A60C1
:10098000DA601A610023BB60284B1B6C274A43F0D6
:1009900080531364254B1B6C03F08053BB60BB6812
:1009A00000237B60224B1B68214A43F440431360C1
:1009B0001F4B1B6803F440437B607B6801233B6251
:1009C0004FF480337B620223BB634FF48003FB63ED
:1009D00004233B64A8237B640223BB640723FB64DA
:1009E00007F12003184603F06BFF0346002B01D0EC
:1009F00000F032F80F23FB6002233B6100237B6190
:100A00004FF4A053BB614FF48053FB6107F10C031B
:100A10000521184604F0CCF90346002B01D000F064
:100A20001BF800BF5037BD4680BD00BF00380240F4
:100A30000070004080B582B000AF78607B681B68B2
:100A4000044A934201D105F061FB00BF0837BD465F
:100A500080BD00BF0000014080B400AF72B600BF8F
:100A6000FEE7000080B582B000AF00237B60124B30
:100A70005B6C114A43F4804353640F4B5B6C03F48B
:100A800080437B607B6800233B600B4B1B6C0A4AF6
:100A900043F080531364084B1B6C03F080533B609E
:100AA0003B6800220F216FF0010002F0E9FF00BF58
:100AB0000837BD4680BD00BF0038024080B58CB00D
:100AC00000AF78600023BB6200237B620023BB6021
:100AD0002F4B5B6C2E4A43F0010353642C4B5B6C31
:100AE00003F00103BB60BB6807F10C0207F11003C0
:100AF0001146184604F07CFB04F066FB03465B00DD
:100B0000BB62BB6A234AA2FB03239B0C013B7B62B3
:100B1000214B224A1A60204B40F2E732DA601E4A2B
:100B20007B6A53601C4B00221A611B4B00229A60A7
:100B3000194B00229A61184804F01CFC034687F800
:100B40002F3097F82F30002B1BD1134804F062FC94
:100B5000034687F82F3097F82F30002B11D119203A
:100B600002F0AAFF7B680F2B08D8002279681920B1
:100B700002F086FF0A4A7B68136002E0012387F8CF
:100B80002F3097F82F3018463037BD4680BD00BF54
:100B90000038024083DE1B437C010020000001403E
:100BA0000800002080B400AFFEE780B400AFFEE78D
:100BB00080B400AFFEE780B400AFFEE780B400AFC2
:100BC000FEE780B400AF00BFBD465DF8047B704710
:100BD00080B500AF024804F08DFC00BF80BD00BFAF
:100BE0007C01002080B586B000AFF860B9607A6003
:100BF00000237B610AE0AFF300800146BB685A1C0A
:100C0000BA60CAB21A707B6901337B617A697B680A
:100C10009A42F0DB7B6818461837BD4680BD80B528
:100C200086B000AFF860B9607A6000237B6109E0AC
:100C3000BB685A1CBA601B781846AFF300807B690A
:100C400001337B617A697B689A42F1DB7B681846E5
:100C50001837BD4680BD80B483B000AF78604FF0D8
:100C6000FF3318460C37BD465DF8047B704780B4EF
:100C700083B000AF786039603B684FF400525A602F
:100C8000002318460C37BD465DF8047B704780B4DE
:100C900083B000AF7860012318460C37BD465DF87D
:100CA000047B704780B485B000AFF860B9607A60AB
:100CB000002318461437BD465DF8047B70470000DA
:100CC00080B586B000AF7860144A154BD31A7B61AB
:100CD0007B693B61134B1B68002B02D1114B124AFD
:100CE0001A60104B1A687B6813443A699A4207D21B
:100CF00007F0F8FC03460C221A604FF0FF3309E0BE
:100D0000084B1B68FB60074B1A687B681344054A55
:100D10001360FB6818461837BD4680BD00000320ED
:100D200000040000C40100208051002080B400AF06
:100D3000064BD3F88830054A43F47003C2F8883074
:100D400000BFBD465DF8047B704700BF00ED00E0CA
:100D500080B586B000AF07F1080300221A605A6020
:100D60009A60DA603B4600221A605A601D4B4FF0D1
:100D700080421A601B4B53225A601A4B00229A6021
:100D8000184B4FF0FF32DA60164B00221A61154BF8
:100D900000229A61134804F0EDFA0346002B01D0BB
:100DA000FFF75AFE4FF48053BB6007F10803194662
:100DB0000C4804F08FFC0346002B01D0FFF74CFEDB
:100DC00000233B6000237B603B461946054804F046
:100DD00041FA0346002B01D0FFF73EFE00BF183753
:100DE000BD4680BDC801002080B485B000AF7860EA
:100DF0007B681B68B3F1804F0DD10023FB60094B6A
:100E00001B6C084A43F001031364064B1B6C03F090
:100E10000103FB60FB6800BF1437BD465DF8047B2F
:100E2000704700BF0038024080B500AF114B124A36
:100E30001A60104B4FF4E1325A600E4B00229A6058
:100E40000C4B0022DA600B4B00221A61094B0C227A
:100E50005A61084B00229A61064B0022DA6105486C
:100E600004F06EFE0346002B01D0FFF7F5FD00BF36
:100E700080BD00BF100200200048004080B58CB04B
:100E800000AF786007F11C0300221A605A609A6074
:100E9000DA601A617B681B68324A93422DD10023C5
:100EA000BB61314B1B6C304A43F4802313642E4BDF
:100EB0001B6C03F48023BB61BB6900237B612A4B5D
:100EC0001B6B294A43F008031363274B1B6B03F08A
:100ED00008037B617B694FF44073FB6102233B6233
:100EE00000237B620323BB620723FB6207F11C0321
:100EF00019461E4802F0EEFD30E07B681B681C4A74
:100F000093422BD100233B61174B5B6C164A43F095
:100F100020035364144B5B6C03F020033B613B697B
:100F20000023FB60104B1B6B0F4A43F00403136359
:100F30000D4B1B6B03F00403FB60FB68C023FB61DC
:100F400002233B6200237B620323BB620823FB6214
:100F500007F11C031946074802F0BCFD00BF3037FB
:100F6000BD4680BD0048004000380240000C0240F1
:100F70000014014000080240DFF834D0FFF7D6FE2D
:100F80000C480D490D4A002302E0D458C4500433E4
:100F9000C4188C42F9D30A4A0A4C002301E01360BA
:100FA0000432A242FBD307F0A3FBFFF797FC704784
:100FB00000000320000000206C00002028B400087E
:100FC0006C0000207C510020FEE7000080B500AFDF
:100FD000054B1B6802F06EF80346012B01D000F0B0
:100FE000ABFA00BF80BD00BF10E000E080B485B068
:100FF00000AFF860B9607A60FB68074A1A60BB68A6
:10100000064A1A607B6880221A6000BF1437BD460A
:101010005DF8047B704700BF58020020B402002036
:1010200080B485B000AFF860B9607A60FB68074AA9
:101030001A60BB68064A1A607B684FF480721A60B7
:1010400000BF1437BD465DF8047B7047B404002030
:101050001005002080B483B000AF78607B6803F196
:1010600008027B685A607B684FF0FF329A607B68A9
:1010700003F108027B68DA607B6803F108027B6891
:101080001A617B6800221A6000BF0C37BD465DF80C
:10109000047B704780B483B000AF78607B68002227
:1010A0001A6100BF0C37BD465DF8047B704780B401
:1010B00085B000AF786039607B685B68FB603B6837
:1010C000FA685A60FB689A683B689A60FB689B689C
:1010D0003A685A60FB683A689A603B687A681A61B5
:1010E0007B681B685A1C7B681A6000BF1437BD46BA
:1010F0005DF8047B704780B485B000AF78603960DC
:101100003B681B68BB60BB68B3F1FF3F03D17B68E2
:101110001B69FB600CE07B680833FB6002E0FB6846
:101120005B68FB60FB685B681B68BA689A42F6D232
:10113000FB685A683B685A603B685B683A689A602B
:101140003B68FA689A60FB683A685A603B687A685C
:101150001A617B681B685A1C7B681A6000BF1437D1
:10116000BD465DF8047B704780B485B000AF786001
:101170007B681B69FB607B685B687A6892689A6031
:101180007B689B687A6852685A60FB685B687A681B
:101190009A4203D17B689A68FB685A607B68002298
:1011A0001A61FB681B685A1EFB681A60FB681B68A3
:1011B00018461437BD465DF8047B704780B485B08F
:1011C00000AFF860B9607A60FB68043BFB60FB68C5
:1011D0004FF080721A60FB68043BFB60BB6823F031
:1011E0000102FB681A60FB68043BFB600C4AFB6869
:1011F0001A60FB68143BFB607A68FB681A60FB6846
:10120000043BFB60FB686FF002021A60FB68203B46
:10121000FB60FB6818461437BD465DF8047B7047D9
:101220002512000880B485B000AF00237B60124B0C
:101230001B68B3F1FF3F0AD04FF0500383F31188CE
:10124000BFF36F8FBFF34F8FFB6000BFFEE74FF020
:10125000500383F31188BFF36F8FBFF34F8FBB60D1
:1012600000BF00BF7B68002BFCD000BF00BF14375D
:10127000BD465DF8047B70470400002000000000BC
:10128000074B19680868B0E8F04F80F30988BFF38E
:101290006F8F4FF0000080F311887047AFF300802C
:1012A0007845002000BF00BF08480068006880F350
:1012B00008884FF0000080F3148862B661B6BFF36F
:1012C0004F8FBFF36F8F00DF00BF00BF08ED00E05E
:1012D00080B586B000AF464B1B68464A93420AD1A0
:1012E0004FF0500383F31188BFF36F8FBFF34F8F1D
:1012F0003B6100BFFEE73E4B1B683F4A93420AD169
:101300004FF0500383F31188BFF36F8FBFF34F8FFC
:10131000FB6000BFFEE7394B7B617B691B78DBB26A
:101320007B607B69FF221A707B691B78DBB2FB70E4
:10133000FB78DBB203F05003DAB2314B1A70314B59
:1013400007221A6009E02F4B1B68013B2D4A1360EE
:10135000FB78DBB25B00DBB2FB70FB78DBB203F047
:101360008003802BEFD0274B1B68C3F10703042BAE
:101370000AD04FF0500383F31188BFF36F8FBFF390
:101380004F8FBB6000BFFEE71E4B1B681B021D4A50
:1013900013601C4B1B6803F4E0631A4A13607B68FC
:1013A000DAB27B691A70184B1B68174A43F4700352
:1013B0001360154B1B68144A43F07043136000F030
:1013C000DDF8124B00221A6000F0FCF8104B1B688D
:1013D0000F4A43F040431360FFF766FF01F0FEFB46
:1013E000FFF720FF002318461837BD4680BD00BF19
:1013F00000ED00E071C20F4170C20F4100E400E057
:10140000100900201409002020ED00E00400002055
:1014100034EF00E080B483B000AF4FF0500383F3AB
:101420001188BFF36F8FBFF34F8F7B6000BF0F4BEF
:101430001B6801330D4A13600C4B1B68012B0FD145
:101440000B4B1B68DBB2002B0AD04FF0500383F329
:101450001188BFF36F8FBFF34F8F3B6000BFFEE774
:1014600000BF0C37BD465DF8047B704704000020C8
:1014700004ED00E080B483B000AF124B1B68002B7A
:101480000AD14FF0500383F31188BFF36F8FBFF37E
:101490004F8F7B6000BFFEE70A4B1B68013B094A88
:1014A0001360084B1B68002B05D100233B603B6891
:1014B00083F3118800BF00BF0C37BD465DF8047B85
:1014C000704700BF04000020000000000000000082
:1014D000EFF30980BFF36F8F154B1A681EF0100FE2
:1014E00008BF20ED108A20E9F04F10602DE90900B7
:1014F0004FF0500080F31188BFF34F8FBFF36F8F11
:1015000001F06CFB4FF0000080F3118809BC1968F2
:101510000868B0E8F04F1EF0100F08BFB0EC108A5A
:1015200080F30988BFF36F8F704700BFAFF300806F
:101530007845002000BF00BF80B582B000AF4FF0FB
:10154000500383F31188BFF36F8FBFF34F8F7B601E
:1015500000BF01F089FA0346002B03D0064B4FF081
:1015600080521A6000233B603B6883F3118800BF00
:1015700000BF0837BD4680BD04ED00E080B400AF79
:101580000B4B00221A600B4B00221A600A4B1B689F
:101590000A4AA2FB03239B09094A013B1360044B3F
:1015A00007221A6000BFBD465DF8047B704700BF8C
:1015B00010E000E018E000E000000020D34D6210D1
:1015C00014E000E0DFF80C00016841F470010160F4
:1015D000704700BF88ED00E080B485B000AFEFF346
:1015E0000583FB60FB680F2B14D9174AFB68134473
:1015F0001B78FB72154B1B78FA7A9A420AD24FF08D
:10160000500383F31188BFF36F8FBFF34F8F7B605D
:1016100000BFFEE70E4B1B6803F4E0620D4B1B6836
:101620009A420AD94FF0500383F31188BFF36F8FAA
:10163000BFF34F8F3B6000BFFEE700BF1437BD46CE
:101640005DF8047B704700BFF0E300E01009002064
:101650000CED00E01409002080B58AB000AF78607E
:101660000023FB6101F044F95B4B1B68002B01D1A7
:1016700000F020F9594B1A687B681340002B40F0AA
:1016800093807B68002B1DD008227B6813447B600D
:101690007B6803F00703002B14D07B6823F007035B
:1016A00008337B607B6803F00703002B0AD04FF000
:1016B000500383F31188BFF36F8FBFF34F8F7B61AC
:1016C00000BFFEE77B68002B6ED0454B1B687A6835
:1016D0009A4269D8434B3B62424B1B687B6204E0F1
:1016E0007B6A3B627B6A1B687B627B6A5B687A68A9
:1016F0009A4203D97B6A1B68002BF1D1364B1B68D9
:101700007A6A9A4250D03B6A1B6808221344FB61F4
:101710007B6A1A683B6A1A607B6A5A687B68D21ACD
:1017200008235B009A421FD97A6A7B681344BB6125
:10173000BB6903F00703002B0AD04FF0500383F37B
:101740001188BFF36F8FBFF34F8F3B6100BFFEE780
:101750007B6A5A687B68D21ABB695A607B6A7A686E
:101760005A60B86900F008F91D4B1A687B6A5B681B
:10177000D31A1B4A13601A4B1A681B4B1B689A42F8
:1017800003D2174B1B68184A13607B6A5A68134BC5
:101790001B681A437B6A5A607B6A00221A60134BEB
:1017A0001B680133114A136001F0B0F8FB6903F0C4
:1017B0000703002B0AD04FF0500383F31188BFF3C7
:1017C0006F8FBFF34F8FFB6000BFFEE7FB691846CA
:1017D0002837BD4680BD00BF20450020344500208D
:1017E0002445002018450020284500202C450020D5
:1017F00080B586B000AF78607B687B617B68002B2A
:101800004DD008235B427A6913447B617B693B615D
:101810003B695A68244B1B681340002B0AD14FF0D8
:10182000500383F31188BFF36F8FBFF34F8FFB60BB
:1018300000BFFEE73B691B68002B0AD04FF0500346
:1018400083F31188BFF36F8FBFF34F8FBB6000BF6F
:10185000FEE73B695A68144B1B681340002B1ED0EF
:101860003B691B68002B1AD13B695A680E4B1B68F9
:10187000DB431A403B695A6001F03AF83B695A6809
:101880000A4B1B681344094A1360386900F074F866
:10189000074B1B680133064A136001F037F800BF9D
:1018A0001837BD4680BD00BF3445002024450020C8
:1018B0003045002080B485B000AF4FF47053BB605A
:1018C000274BFB60FB6803F00703002B0CD0FB6881
:1018D0000733FB60FB6823F00703FB60BA68FB6813
:1018E000D31A1F4A1344BB60FB687B601D4A7B68A8
:1018F00013601C4B00225A607B68BA681344FB607B
:101900000822FB689B1AFB60FB6823F00703FB605F
:10191000FB68154A1360144B1B6800225A60124B77
:101920001B6800221A607B683B603B68FA68D21A29
:101930003B685A600C4B1A683B681A603B685B68EE
:101940000A4A13603B685B68094A1360094B4FF011
:1019500000421A6000BF1437BD465DF8047B704733
:1019600018090020184500202045002028450020A7
:10197000244500203445002080B485B000AF786055
:10198000284BFB6002E0FB681B68FB60FB681B6880
:101990007A689A42F7D8FB68BB60FB685B68BA68F4
:1019A00013447A689A4208D1FB685A687B685B687E
:1019B0001A44FB685A60FB687B607B68BB607B688D
:1019C0005B68BA681A44FB681B689A4218D1FB68C6
:1019D0001A68154B1B689A420DD07B685A68FB68E1
:1019E0001B685B681A447B685A60FB681B681A684E
:1019F0007B681A6008E00C4B1A687B681A6003E089
:101A0000FB681A687B681A60FA687B689A4202D0A1
:101A1000FB687A681A6000BF1437BD465DF8047B26
:101A2000704700BF184500202045002080B584B0D5
:101A300000AF786039607B68FB60FB68002B0AD1DF
:101A40004FF0500383F31188BFF36F8FBFF34F8FB5
:101A5000BB6000BFFEE7FFF7DDFCFB681A68FB68B0
:101A6000DB6BF968096C01FB03F31A44FB689A60AD
:101A7000FB6800229A63FB681A68FB685A60FB687F
:101A80001A68FB68DB6B013BF968096C01FB03F327
:101A90001A44FB68DA60FB68FF2283F84420FB6885
:101AA000FF2283F845203B68002B14D1FB681B699B
:101AB000002B1AD0FB681033184601F03DF903469D
:101AC000002B12D00C4B4FF080521A60BFF34F8F97
:101AD000BFF36F8F09E0FB6810331846FFF7BAFABF
:101AE000FB6824331846FFF7B5FAFFF7C3FC012360
:101AF00018461037BD4680BD04ED00E080B58EB0BD
:101B000002AFF860B9607A603B60FB68002B0AD1D5
:101B10004FF0500383F31188BFF36F8FBFF34F8FE4
:101B2000BB6200BFFEE73B68002B0AD14FF05003B9
:101B300083F31188BFF36F8FBFF34F8F7B6200BFBA
:101B4000FEE77B68002B02D0BB68002B01D001238D
:101B500000E00023002B0AD14FF0500383F31188DB
:101B6000BFF36F8FBFF34F8F3B6200BFFEE77B6811
:101B7000002B02D1BB68002B01D1012300E0002320
:101B8000002B0AD14FF0500383F31188BFF36F8FFE
:101B9000BFF34F8FFB6100BFFEE750237B617B6982
:101BA000502B0AD04FF0500383F31188BFF36F8F8F
:101BB000BFF34F8FBB6100BFFEE77B693B68FB62F1
:101BC000FB6A002B0DD0FB6A012283F8462097F8B0
:101BD0003820FB6A009313467A68B968F86800F009
:101BE0003FF8FB6A18463037BD4680BD80B58AB0E5
:101BF00002AFF860B9601346FB71FB68002B0AD195
:101C00004FF0500383F31188BFF36F8FBFF34F8FF3
:101C10003B6100BFFEE7FB68BA6802FB03F3FB61B0
:101C2000FB6950331846FFF717FDB861BB69002BFD
:101C300011D0BB697B617B6950337B61BB6900223A
:101C400083F84620FA79BB69009313467A69B9682C
:101C5000F86800F005F8BB6918462037BD4680BD1E
:101C600080B584B000AFF860B9607A60FB70BB6883
:101C7000002B03D1BB69BA691A6002E0BB697A68BC
:101C80001A60BB69FA68DA63BB69BA681A64012131
:101C9000B869FFF7CBFEBB69FA7883F84C2000BF28
:101CA0001037BD4680BD000080B58EB000AFF86033
:101CB000B9607A603B6000237B63FB683B633B6BEE
:101CC000002B0AD14FF0500383F31188BFF36F8FBD
:101CD000BFF34F8FBB6200BFFEE7BB68002B03D191
:101CE0003B6B1B6C002B01D1012300E00023002B78
:101CF0000AD14FF0500383F31188BFF36F8FBFF306
:101D00004F8F7B6200BFFEE73B68022B03D13B6B2A
:101D1000DB6B012B01D1012300E00023002B0AD152
:101D20004FF0500383F31188BFF36F8FBFF34F8FD2
:101D30003B6200BFFEE701F0BDF90346002B02D174
:101D40007B68002B01D1012300E00023002B0AD186
:101D50004FF0500383F31188BFF36F8FBFF34F8FA2
:101D6000FB6100BFFEE7FFF755FB3B6B9A6B3B6BDC
:101D7000DB6B9A4202D33B68022B29D13A68B968DF
:101D8000386B00F00BFAF8623B6B5B6A002B10D0EB
:101D90003B6B2433184600F0CFFF0346002B13D0D3
:101DA0003F4B4FF080521A60BFF34F8FBFF36F8FDE
:101DB0000AE0FB6A002B07D0394B4FF080521A60C3
:101DC000BFF34F8FBFF36F8FFFF754FB012363E027
:101DD0007B68002B03D1FFF74DFB00235CE07B6B9E
:101DE000002B06D107F11403184601F009F801236E
:101DF0007B63FFF73FFB00F07BFDFFF70BFB3B6BCB
:101E000093F844305BB2B3F1FF3F03D13B6B002248
:101E100083F844203B6B93F845305BB2B3F1FF3F4E
:101E200003D13B6B002283F84520FFF723FB3A1DCB
:101E300007F114031146184600F0F8FF0346002B83
:101E400024D1386B00F0A2FA0346002B18D03B6B6C
:101E500010337A681146184600F01EFF386B00F008
:101E60002DFA00F053FD0346002B7FF47CAF0C4BA2
:101E70004FF080521A60BFF34F8FBFF36F8F72E73E
:101E8000386B00F01BFA00F041FD6CE7386B00F096
:101E900015FA00F03BFD002318463837BD4680BDDB
:101EA00004ED00E080B590B000AFF860B9607A60F2
:101EB0003B60FB68BB63BB6B002B0AD14FF0500348
:101EC00083F31188BFF36F8FBFF34F8FBB6200BFE7
:101ED000FEE7BB68002B03D1BB6B1B6C002B01D151
:101EE000012300E00023002B0AD14FF0500383F3BD
:101EF0001188BFF36F8FBFF34F8F7B6200BFFEE788
:101F00003B68022B03D1BB6BDB6B012B01D101239F
:101F100000E00023002B0AD14FF0500383F3118817
:101F2000BFF36F8FBFF34F8F3B6200BFFEE7FFF73A
:101F300053FBEFF311824FF0500383F31188BFF38B
:101F40006F8FBFF34F8FFA61BB61FB697B63BB6B24
:101F50009A6BBB6BDB6B9A4202D33B68022B2FD18F
:101F6000BB6B93F8453087F83330BB6B9B6BFB62E0
:101F70003A68B968B86B00F011F997F93330B3F1EA
:101F8000FF3F12D1BB6B5B6A002B16D0BB6B2433B7
:101F9000184600F0D1FE0346002B0ED07B68002BC4
:101FA0000BD07B6801221A6007E097F833300133C9
:101FB000DBB25AB2BB6B83F845200123FB6301E01F
:101FC0000023FB637B6B7B617B6983F3118800BF1C
:101FD000FB6B18464037BD4680BD000080B58CB015
:101FE00000AFF860B9607A600023FB62FB68BB62F7
:101FF000BB6A002B0AD14FF0500383F31188BFF363
:102000006F8FBFF34F8F3B6200BFFEE7BB68002BB3
:1020100003D1BB6A1B6C002B01D1012300E000231C
:10202000002B0AD14FF0500383F31188BFF36F8F59
:10203000BFF34F8FFB6100BFFEE701F03BF80346A3
:10204000002B02D17B68002B01D1012300E000238B
:10205000002B0AD14FF0500383F31188BFF36F8F29
:10206000BFF34F8FBB6100BFFEE7FFF7D3F9BB6A39
:102070009B6B7B627B6A002B1FD0B968B86A00F04B
:10208000F7F87B6A5A1EBB6A9A63BB6A1B69002B0E
:102090000FD0BB6A1033184600F04EFE0346002BEB
:1020A00007D03D4B4FF080521A60BFF34F8FBFF304
:1020B0006F8FFFF7DFF9012369E07B68002B03D105
:1020C000FFF7D8F9002362E0FB6A002B06D107F185
:1020D0001003184600F094FE0123FB62FFF7CAF9D3
:1020E00000F006FCFFF796F9BB6A93F844305BB248
:1020F000B3F1FF3F03D1BB6A002283F84420BB6ADF
:1021000093F845305BB2B3F1FF3F03D1BB6A0022C5
:1021100083F84520FFF7AEF93A1D07F11003114689
:10212000184600F083FE0346002B23D1B86A00F066
:1021300017F90346002B17D0BB6A24337A6811467F
:10214000184600F0A9FDB86A00F0B8F800F0DEFB10
:102150000346002B89D1104B4FF080521A60BFF319
:102160004F8FBFF36F8F80E7B86A00F0A7F800F0D9
:10217000CDFB7AE7B86A00F0A1F800F0C7FBB86AB7
:1021800000F0EEF80346002B3FF46FAF0023184633
:102190003037BD4680BD00BF04ED00E080B586B09D
:1021A00000AFF860B9607A6000237B61FB689B6BCD
:1021B0003B61FB681B6C002B0DD1FB681B68002B7F
:1021C0004DD1FB689B68184600F092FF7861FB6870
:1021D00000229A6043E07B68002B19D1FB685868A5
:1021E000FB681B6C1A46B96806F0A9FAFB685A68C6
:1021F000FB681B6C1A44FB685A60FB685A68FB68F2
:102200009B689A422BD3FB681A68FB685A6026E0E9
:10221000FB68D868FB681B6C1A46B96806F08FFA31
:10222000FB68DA68FB681B6C5B421A44FB68DA6087
:10223000FB68DA68FB681B689A4207D2FB689A68F9
:10224000FB681B6C5B421A44FB68DA607B68022BFC
:1022500005D13B69002B02D03B69013B3B613B69E7
:102260005A1CFB689A637B6918461837BD4680BDC7
:1022700080B582B000AF786039607B681B6C002B42
:1022800018D07B68DA687B681B6C1A447B68DA605C
:102290007B68DA687B689B689A4203D37B681A681C
:1022A0007B68DA607B68D9687B681B6C1A46386883
:1022B00006F045FA00BF0837BD4680BD80B584B042
:1022C00000AF7860FFF7A6F87B6893F84530FB73A2
:1022D00011E07B685B6A002B12D07B6824331846C0
:1022E00000F02AFD0346002B01D000F001FEFB7B2D
:1022F000013BDBB2FB7397F90F30002BE9DC00E008
:1023000000BF7B68FF2283F84520FFF7B3F8FFF793
:1023100081F87B6893F84430BB7311E07B681B69DC
:10232000002B12D07B681033184600F005FD0346E1
:10233000002B01D000F0DCFDBB7B013BDBB2BB73AB
:1023400097F90E30002BE9DC00E000BF7B68FF222C
:1023500083F84420FFF78EF800BF1037BD4680BDDC
:1023600080B584B000AF7860FFF754F87B689B6B52
:10237000002B02D10123FB6001E00023FB60FFF78B
:1023800079F8FB6818461037BD4680BD80B584B02B
:1023900000AF7860FFF73EF87B689A6B7B68DB6B79
:1023A0009A4202D10123FB6001E00023FB60FFF7AA
:1023B00061F8FB6818461037BD4680BD80B485B013
:1023C00000AF786039600023FB6014E00F4AFB68BF
:1023D00052F83330002B0BD10C49FB683A6841F8B6
:1023E00033200A4AFB68DB0013447A685A6006E02F
:1023F000FB680133FB60FB68072BE7D900BF00BF18
:102400001437BD465DF8047B704700BF3845002097
:1024100080B586B000AFF860B9607A60FB687B6118
:10242000FEF7F8FF7B6993F844305BB2B3F1FF3FEE
:1024300003D17B69002283F844207B6993F84530FF
:102440005BB2B3F1FF3F03D17B69002283F84520E3
:10245000FFF710F87B699B6B002B06D17B69243357
:102460007A68B968184600F03BFC7869FFF726FFE8
:1024700000BF1837BD4680BD80B58EB004AFF86090
:10248000B9607A603B607B6B002B0AD14FF0500340
:1024900083F31188BFF36F8FBFF34F8F3B6200BF91
:1024A000FEE7BB6B002B0AD14FF0500383F311887A
:1024B000BFF36F8FBFF34F8FFB6100BFFEE75C235D
:1024C0003B613B695C2B0AD04FF0500383F31188CA
:1024D000BFF36F8FBFF34F8FBB6100BFFEE73B6958
:1024E000BB6B002B1ED07B6B002B1BD0BB6B7B62AE
:1024F0007B6A7A6B1A637B6A022283F85920002375
:1025000003937B6A029307F1140301933B6B0093DF
:102510003B687A68B968F86800F050F8786A00F0AB
:10252000DDF801E000237B617B6918462837BD4652
:1025300080BD80B58CB004AFF860B9603B601346D5
:10254000FB80FB889B001846FFF786F878617B6963
:10255000002B0ED05C20FFF77FF8F861FB69002BA1
:1025600003D0FB697A691A6305E07869FFF740F9DF
:1025700001E00023FB61FB69002B17D0FB690022FF
:1025800083F85920FA8800230393FB690293FB6ABE
:102590000193BB6A00933B68B968F86800F00EF8D5
:1025A000F86900F09BF80123BB6102E04FF0FF33B4
:1025B000BB61BB6918462037BD4680BD80B588B079
:1025C00000AFF860B9607A603B603B6B186B7B686A
:1025D0009B001A46A52106F037F83B6B1A6B7B6807
:1025E00003F18043013B9B001344BB61BB6923F0B3
:1025F0000703BB61BB6903F00703002B0AD04FF050
:10260000500383F31188BFF36F8FBFF34F8F7B614C
:1026100000BFFEE7BB68002B1FD00023FB6112E068
:10262000BA68FB69134419783A6BFB691344343375
:102630000A461A70BA68FB6913441B78002B06D04F
:10264000FB690133FB61FB690F2BE9D900E000BF97
:102650003B6B002283F8432003E03B6B002283F8AE
:102660003420BB6A372B01D93723BB623B6BBA6A74
:10267000DA623B6BBA6ADA643B6B00221A653B6B29
:1026800004331846FEF706FD3B6B18331846FEF779
:1026900001FD3B6B3A6B1A61BB6AC3F138023B6BBD
:1026A0009A613B6B3A6B5A623B6B00225A653B6BFB
:1026B000002283F858203A68F968B869FEF77EFD71
:1026C00002463B6B1A60FB6A002B02D0FB6A3A6B36
:1026D0001A6000BF2037BD4680BD000080B582B0C3
:1026E00000AF7860FEF796FE2D4B1B6801332C4A35
:1026F00013602C4B1B68002B09D12A4A7B6813609E
:10270000274B1B68012B10D100F016FC0DE0264B67
:102710001B68002B09D1234B1B68DA6A7B68DB6AD4
:102720009A4202D81F4A7B681360204B1B68013312
:102730001E4A13601D4B1A687B685A647B68DA6A0C
:102740001B4B1B689A4203D97B68DB6A184A1360EB
:102750007B68DA6A13469B0013449B00154A1A44AF
:102760007B68043319461046FEF7A1FCFEF782FE93
:102770000D4B1B68002B0ED00A4B1B68DA6A7B6876
:10278000DB6A9A4207D20C4B4FF080521A60BFF3BB
:102790004F8FBFF36F8F00BF0837BD4680BD00BFAE
:1027A0004C4A002078450020584A0020684A002002
:1027B000544A00207C45002004ED00E080B584B040
:1027C00000AF78600023FB607B68002B17D0134BB1
:1027D0001B68002B0AD04FF0500383F31188BFF31E
:1027E0006F8FBFF34F8FBB6000BFFEE700F080F834
:1027F0000021786800F0EAFC00F088F8F860FB68D7
:10280000002B07D1064B4FF080521A60BFF34F8F59
:10281000BFF36F8F00BF1037BD4680BD744A0020E4
:1028200004ED00E080B58AB004AF0023BB60002354
:102830007B603A46391D07F108031846FEF7D6FBC0
:1028400039687B68BA6802920193002300930023E1
:102850000A4621492148FFF70FFE0346204A13602C
:102860001F4B1B68002B02D001237B6101E000237A
:102870007B617B69012B02D100F0FCFC78617B69F4
:10288000012B16D14FF0500383F31188BFF36F8FE4
:10289000BFF34F8F3B6100BF124B4FF0FF321A6006
:1028A000114B01221A60114B00221A60FEF710FD35
:1028B0000EE07B69B3F1FF3F0AD14FF0500383F381
:1028C0001188BFF36F8FBFF34F8FFB6000BFFEE730
:1028D00000BF1837BD4680BD94920008092F00083C
:1028E000704A00206C4A0020584A0020504A0020BC
:1028F00080B400AF044B1B680133034A136000BF70
:10290000BD465DF8047B7047744A002080B584B0F2
:1029100000AF0023FB600023BB60424B1B68002B11
:102920000AD14FF0500383F31188BFF36F8FBFF3C9
:102930004F8F3B6000BFFEE7FEF76CFD394B1B6815
:10294000013B384A1360374B1B68002B62D1364B72
:102950001B68002B5ED02FE0344BDB68DB68FB602C
:10296000FB6818331846FEF7FFFBFB680433184674
:10297000FEF7FAFBFB68DA6A2D4B1B689A4203D913
:10298000FB68DB6A2A4A1360FB68DA6A13469B001D
:1029900013449B00274A1A44FB6804331946104627
:1029A000FEF785FBFB68DA6A234B1B68DB6A9A42F9
:1029B00002D3224B01221A601C4B1B68002BCBD187
:1029C000FB68002B01D000F055FB1D4B1B687B60A2
:1029D0007B68002B10D000F047F80346002B02D094
:1029E000164B01221A607B68013B7B607B68002BE1
:1029F000F1D1134B00221A60104B1B68002B09D039
:102A00000123BB600F4B4FF080521A60BFF34F8F12
:102A1000BFF36F8FFEF72EFDBB6818461037BD461B
:102A200080BD00BF744A00204C4A00200C4A0020A0
:102A3000544A00207C45002078450020604A002050
:102A40005C4A002004ED00E080B483B000AF054B89
:102A50001B687B607B6818460C37BD465DF8047BBD
:102A6000704700BF504A002080B586B000AF0023F9
:102A70007B614F4B1B68002B40F08F804D4B1B68D8
:102A800001333B614B4A3B6913603B69002B20D10A
:102A9000494B1B681B68002B0AD04FF0500383F38F
:102AA0001188BFF36F8FBFF34F8F3B6000BFFEE70E
:102AB000414B1B68FB60414B1B683F4A13603F4A18
:102AC000FB6813603E4B1B6801333D4A136000F006
:102AD000D1FA3C4B1B683A699A4249D3364B1B6882
:102AE0001B68002B04D1374B4FF0FF321A603FE0D8
:102AF000314B1B68DB68DB68BB60BB685B687B6075
:102B00003A697B689A4203D22E4A7B6813602FE0B1
:102B1000BB6804331846FEF727FBBB689B6A002B93
:102B200004D0BB6818331846FEF71EFBBB68DA6A90
:102B3000254B1B689A4203D9BB68DB6A224A1360A3
:102B4000BB68DA6A13469B0013449B001F4A1A4471
:102B5000BB68043319461046FEF7A9FABB68DA6A67
:102B60001B4B1B68DB6A9A42B8D301237B61B5E734
:102B7000174B1B68DA6A154913469B0013449B00E8
:102B80000B441B68012B01D901237B61114B1B688E
:102B9000002B07D001237B6104E00F4B1B6801333E
:102BA0000D4A13607B6918461837BD4680BD00BFCB
:102BB000744A0020504A0020044A0020084A00209D
:102BC000644A00206C4A0020544A00207C450020C2
:102BD00078450020604A00205C4A002080B485B01F
:102BE00000AF284B1B68002B03D0274B01221A6033
:102BF00041E0254B00221A60244B1B68FB6010E06B
:102C0000FB68002B0AD14FF0500383F31188BFF308
:102C10006F8FBFF34F8F7B6000BFFEE7FB68013B08
:102C2000FB601B49FA6813469B0013449B000B444E
:102C30001B68002BE4D0FA6813469B0013449B00EA
:102C4000134A1344BB60BB685B685A68BB685A6030
:102C5000BB685A68BB6808339A4204D1BB685B689A
:102C60005A68BB685A60BB685B68DB68094A1360D6
:102C7000064AFB68136000BF1437BD465DF8047B4D
:102C8000704700BF744A0020604A0020544A002068
:102C90007C4500207845002080B584B000AF786086
:102CA00039607B68002B0AD14FF0500383F3118801
:102CB000BFF36F8FBFF34F8FFB6000BFFEE7074B83
:102CC0001B68183319467868FEF715FA0121386831
:102CD00000F07CFA00BF1037BD4680BD784500206B
:102CE00080B586B000AFF860B9607A60FB68002BF1
:102CF0000AD14FF0500383F31188BFF36F8FBFF3F6
:102D00004F8F7B6100BFFEE70A4B1B6818331946E3
:102D1000F868FEF7CCF97B68002B02D04FF0FF3348
:102D2000BB607968B86800F051FA00BF1837BD463B
:102D300080BD00BF7845002080B586B000AF7860C8
:102D40007B68DB68DB683B613B69002B0AD14FF095
:102D5000500383F31188BFF36F8FBFF34F8FFB6076
:102D600000BFFEE73B6918331846FEF7FDF91E4B1E
:102D70001B68002B1DD13B6904331846FEF7F4F99C
:102D80003B69DA6A194B1B689A4203D93B69DB6AD3
:102D9000164A13603B69DA6A13469B0013449B0092
:102DA000134A1A443B69043319461046FEF77FF96B
:102DB00005E03B69183319460E48FEF778F93B6980
:102DC000DA6A0D4B1B68DB6A9A4205D901237B61E5
:102DD0000A4B01221A6001E000237B617B691846DF
:102DE0001837BD4680BD00BF744A0020544A0020F9
:102DF0007C4500200C4A002078450020604A0020D5
:102E000080B483B000AF7860064B1A687B681A60A4
:102E1000054B1A687B685A6000BF0C37BD465DF8E9
:102E2000047B7047644A0020504A002080B588B077
:102E300000AF786039607B68002B0AD14FF05003F7
:102E400083F31188BFF36F8FBFF34F8F3B6100BFD8
:102E5000FEE73B68002B0AD14FF0500383F3118843
:102E6000BFF36F8FBFF34F8FFB6000BFFEE7FEF72E
:102E7000D1FA1D4B1B68BB617B685B68BA69D31ACA
:102E80007B613B681B68B3F1FF3F02D10023FB610C
:102E900023E07B681A68154B1B689A4207D07B6851
:102EA0005B68BA699A4202D30123FB6115E03B6873
:102EB0001B687A699A420BD23B681A687B69D21AFE
:102EC0003B681A607868FFF79BFF0023FB6104E012
:102ED0003B6800221A600123FB61FEF7CBFAFB6915
:102EE00018462037BD4680BD504A0020644A002065
:102EF00080B400AF034B01221A6000BFBD465DF8ED
:102F0000047B7047604A002080B582B000AF7860D3
:102F100000F052F8064B1B68012BF9D9054B4FF016
:102F200080521A60BFF34F8FBFF36F8FF0E700BF7F
:102F30007C45002004ED00E080B582B000AF0023A6
:102F40007B600CE07A6813469B0013449B00124A96
:102F500013441846FEF77EF87B6801337B607B687C
:102F6000372BEFD90D48FEF775F80D48FEF772F8CC
:102F70000C48FEF76FF80C48FEF76CF80B48FEF7AC
:102F800069F80B4B054A1A600A4B054A1A6000BFE4
:102F90000837BD4680BD00BF7C450020DC490020CD
:102FA000F04900200C4A0020204A0020384A002026
:102FB000044A0020084A002080B582B000AF19E022
:102FC000FEF728FA104BDB68DB687B607B68043314
:102FD0001846FEF7C9F80D4B1B68013B0B4A1360FE
:102FE0000B4B1B68013B0A4A1360FEF743FA7868F3
:102FF00000F010F8064B1B68002BE1D100BF00BFAA
:103000000837BD4680BD00BF204A00204C4A002042
:10301000344A002080B584B000AF78607B6893F8B4
:103020005930002B08D17B681B6B1846FEF7E0FB7C
:103030007868FEF7DDFB18E07B6893F85930012BC8
:1030400003D17868FEF7D4FB0FE07B6893F8593022
:10305000022B0AD04FF0500383F31188BFF36F8F18
:10306000BFF34F8FFB6000BFFEE700BF1037BD46C8
:1030700080BD000080B483B000AF0C4B1B681B68A0
:10308000002B04D10A4B4FF0FF321A6008E0074BC7
:103090001B68DB68DB687B607B685B68044A1360E5
:1030A00000BF0C37BD465DF8047B7047044A002022
:1030B0006C4A002080B483B000AF0B4B1B68002B20
:1030C00002D101237B6008E0084B1B68002B02D172
:1030D00002237B6001E000237B607B6818460C378D
:1030E000BD465DF8047B7047584A0020744A0020B2
:1030F00080B586B000AF78607B683B6100237B6160
:103100007B68002B56D02E4B1B683A699A420AD036
:103110004FF0500383F31188BFF36F8FBFF34F8FCE
:10312000FB6000BFFEE73B691B6D002B0AD14FF02F
:10313000500383F31188BFF36F8FBFF34F8FBB60D2
:1031400000BFFEE73B691B6D5A1E3B691A653B6970
:10315000DA6A3B69DB6C9A422CD03B691B6D002B11
:1031600028D13B6904331846FDF7FEFF3B69DA6C52
:103170003B69DA623B69DB6AC3F138023B699A61F9
:103180003B69DA6A0F4B1B689A4203D93B69DB6AD9
:103190000C4A13603B69DA6A13469B0013449B0098
:1031A000094A1A443B69043319461046FDF77FFF6C
:1031B00001237B617B6918461837BD4680BD00BF7F
:1031C00078450020544A00207C45002080B584B01A
:1031D00000AF78603960214B1B68FB60204B1B6897
:1031E00004331846FDF7C0FF7B68B3F1FF3F0AD1F7
:1031F0003B68002B07D01A4B1B680433194619484B
:10320000FDF755FF26E0FA687B681344BB60144B5A
:103210001B68BA685A60BA68FB689A4209D2124BB6
:103220001A680F4B1B68043319461046FDF763FFFD
:1032300010E00E4B1A680A4B1B68043319461046FF
:10324000FDF759FF0A4B1B68BA689A4202D2084A36
:10325000BB68136000BF1037BD4680BD504A0020D8
:1032600078450020384A0020084A0020044A0020FF
:103270006C4A002080B58AB004AF00237B6100F067
:1032800007FB1C4B1B68002B21D00023FB60002395
:10329000BB603A1D07F1080107F10C031846FDF762
:1032A000BFFE7968BB68FA6802920193022300931B
:1032B00000230A4610491148FFF7DEF80346104A7A
:1032C00013600F4B1B68002B01D001237B617B69CE
:1032D000002B0AD14FF0500383F31188BFF36F8F97
:1032E000BFF34F8F3B6100BFFEE77B69184618377D
:1032F000BD4680BDA84A00209C92000839340008D1
:10330000AC4A002080B58AB000AFF860B9607A603E
:103310003B6000237B62FB68002B0AD14FF0500317
:1033200083F31188BFF36F8FBFF34F8F3B6200BFF2
:10333000FEE71A4B1B68002B2AD0BB683B617B68F9
:103340007B61FB68BB61BB68052B18DCFFF7B2FE35
:103350000346022B09D1114B186807F11001002315
:103360003A6BFEF7A1FC786212E00C4B186807F18B
:10337000100100230022FEF797FC786208E0074B5B
:10338000186807F1100100233A68FEF78BFD786298
:103390007B6A18462837BD4680BD00BFA84A00207A
:1033A00080B588B002AF78603960224B1B68DB685B
:1033B000DB687B617B6904331846FDF7D5FE7B69CA
:1033C00093F8283003F00403002B22D07B699A691C
:1033D0007B68D1187B683A68786900F0D1F80346B9
:1033E000002B1FD00023009300237A680021786906
:1033F000FFF788FF38613B69002B13D14FF0500372
:1034000083F31188BFF36F8FBFF34F8FFB6000BF53
:10341000FEE77B6993F8283023F00103DAB27B6979
:1034200083F828207B691B6A7869984700BF1837A2
:10343000BD4680BDA04A002080B584B000AF786052
:1034400007F10803184600F057F8F860BB68194602
:10345000F86800F003F800F0D5F8F1E780B584B023
:1034600000AF78603960FFF743FA07F108031846A8
:1034700000F066F8F860BB68002B30D13B68002B89
:103480000AD17A68FB689A4206D8FFF73FFAF968D2
:103490007868FFF785FF24E03B68002B08D0134BCA
:1034A0001B681B68002B01D1012300E000233B6057
:1034B0000F4B18687A68FB68D31A3A681946FEF70A
:1034C000A7FFFFF723FA0346002B0AD1094B4FF061
:1034D00080521A60BFF34F8FBFF36F8F01E0FFF789
:1034E00015FA00BF1037BD4680BD00BFA44A0020BA
:1034F000A84A002004ED00E080B485B000AF7860F9
:103500000E4B1B681B68002B01D1012200E000223A
:103510007B681A607B681B68002B05D1074B1B6812
:10352000DB681B68FB6001E00023FB60FB6818465A
:103530001437BD465DF8047B704700BFA04A0020E9
:1035400080B584B000AF7860FFF77EFAF8600B4B6F
:103550001B68FA689A4205D200F036F97B680122AE
:103560001A6002E07B6800221A60044AFB6813605C
:10357000FB6818461037BD4680BD00BFB04A00202A
:1035800080B586B000AFF860B9607A603B60002318
:103590007B61FB68BA685A60FB68FA681A61BA68AE
:1035A0007B689A4212D87A683B68D21AFB689B699A
:1035B0009A4202D301237B611BE0104B1A68FB681F
:1035C000043319461046FDF796FD12E07A683B6811
:1035D0009A4206D2BA683B689A4202D301237B61C1
:1035E00007E0074B1A68FB68043319461046FDF7DD
:1035F00082FD7B6918461837BD4680BDA44A00206D
:10360000A04A002080B58EB002AFCAE07B68002BD4
:1036100018DA3B1D0433FB62FB6A002B0AD14FF022
:10362000500383F31188BFF36F8FBFF34F8FFB619C
:1036300000BFFEE7FB6A1B68FA6A5068FA6A926884
:10364000114698477B68002BC0F2AB80FB68BB62D9
:10365000BB6A5B69002B04D0BB6A04331846FDF7D4
:1036600083FD3B461846FFF76BFF78627B68092BAA
:1036700000F2968001A252F823F000BFA5360008A0
:10368000A5360008A5360008193700082D370008B0
:1036900077370008A5360008A53600081937000856
:1036A0002D370008BB6A93F8283043F00103DAB2E3
:1036B000BB6A83F82820BA68BB6A9B69D118BB68CB
:1036C0007A6AB86AFFF75CFF0346002B69D0BB6AD1
:1036D0001B6AB86A9847BB6A93F8283003F0040362
:1036E000002B5ED0BA68BB6A9B691A440023009322
:1036F00000230021B86AFFF705FE38623B6A002B01
:103700004FD14FF0500383F31188BFF36F8FBFF396
:103710004F8FBB6100BFFEE7BB6A93F8283023F0F0
:103720000103DAB2BB6A83F828203AE0BB6A93F857
:10373000283043F00103DAB2BB6A83F82820BA6864
:10374000BB6A9A61BB6A9B69002B0AD14FF0500398
:1037500083F31188BFF36F8FBFF34F8F7B6100BF7F
:10376000FEE7BB6A9A697B6AD1187B6A7A6AB86A93
:10377000FFF706FF15E0BB6A93F8283003F0020359
:10378000002B03D1B86AFEF733F80AE0BB6A93F85E
:10379000283023F00103DAB2BB6A83F8282000E066
:1037A00000BF084B1B68391D00221846FEF716FCA7
:1037B0000346002B7FF42AAF00BF00BF3037BD4661
:1037C00080BD00BFA84A002080B588B002AF48E0A5
:1037D0002D4B1B68DB681B683B612B4B1B68DB6850
:1037E000DB68FB60FB6804331846FDF7BDFCFB6833
:1037F0001B6AF8689847FB6893F8283003F00403C5
:10380000002B2ED0FB689B693A691344BB60BA68F1
:103810003B699A420ED9FB68BA685A60FB68FA683D
:103820001A61194B1A68FB68043319461046FDF7F4
:1038300062FC16E00023009300233A690021F86837
:10384000FFF760FD78607B68002B0AD14FF05003D2
:1038500083F31188BFF36F8FBFF34F8F3B6000BFBF
:10386000FEE7094B1B681B68002BB1D1064B1B6898
:103870007B61064B1B68044A1360044A7B69136032
:1038800000BF1837BD4680BDA04A0020A44A0020D2
:1038900080B582B002AFFDF7BDFD154B1B68002B54
:1038A00020D11448FDF7D6FB1348FDF7D3FB134B8B
:1038B000104A1A60124B104A1A6000230093114BF1
:1038C000114A10210A20FEF719F90346084A13602D
:1038D000074B1B68002B05D0054B1B680B4918468E
:1038E000FEF76CFDFDF7C6FD00BFBD4680BD00BF05
:1038F000A84A0020784A00208C4A0020A04A0020D4
:10390000A44A0020544B0020B44A0020A49200088E
:1039100080B485B000AF78607B6803F00703FB607C
:103920000C4BDB68BB60BA684FF6FF031340BB600B
:10393000FB681A02BB68134343F0BF6343F40033D0
:10394000BB60044ABB68D36000BF1437BD465DF856
:10395000047B704700ED00E080B400AF044BDB68EF
:103960001B0A03F007031846BD465DF8047B704749
:1039700000ED00E080B483B000AF0346FB7197F91F
:103980000730002B0BDBFB7903F01F02074997F987
:1039900007305B09012000FA02F241F8232000BF42
:1039A0000C37BD465DF8047B704700BF00E100E0C6
:1039B00080B483B000AF03463960FB7197F90730DC
:1039C000002B0ADB3B68DAB20C4997F90730120189
:1039D000D2B20B4483F800230AE03B68DAB208490C
:1039E000FB7903F00F03043B1201D2B20B441A76A9
:1039F00000BF0C37BD465DF8047B704700E100E076
:103A000000ED00E080B489B000AFF860B9607A6082
:103A1000FB6803F00703FB61FB69C3F10703042B99
:103A200028BF0423BB61FB690433062B02D9FB6961
:103A3000033B00E000237B614FF0FF32BB6902FAD9
:103A400003F3DA43BB681A407B699A404FF0FF31B9
:103A50007B6901FA03F3D9437B680B401343184693
:103A60002437BD465DF8047B704780B582B000AF57
:103A700078607868FFF74CFF00BF0837BD4680BD0F
:103A800080B586B000AF0346B9607A60FB7300234F
:103A90007B61FFF761FF78617A68B9687869FFF741
:103AA000B1FF024697F90F3011461846FFF780FF25
:103AB00000BF1837BD4680BD80B582B000AF034659
:103AC000FB7197F907301846FFF754FF00BF08371E
:103AD000BD4680BD80B489B000AF786039600023F6
:103AE0007B6100233B610023BB610023FB6177E125
:103AF0000122FB6902FA03F37B613B681B687A6968
:103B000013403B613A697B699A4240F066813B68A9
:103B10005B6803F00303012B05D03B685B6803F08F
:103B20000303022B30D17B689B68BB61FB695B00A0
:103B3000032202FA03F3DB43BA691340BB613B681B
:103B4000DA68FB695B0002FA03F3BA691343BB61ED
:103B50007B68BA699A607B685B68BB610122FB691C
:103B600002FA03F3DB43BA691340BB613B685B684D
:103B70001B0903F00102FB6902FA03F3BA6913435C
:103B8000BB617B68BA695A603B685B6803F00303FA
:103B9000032B17D07B68DB68BB61FB695B000322EA
:103BA00002FA03F3DB43BA691340BB613B689A68CE
:103BB000FB695B0002FA03F3BA691343BB617B68DC
:103BC000BA69DA603B685B6803F00303022B23D118
:103BD000FB69DA087B68083253F82230BB61FB6965
:103BE00003F007039B000F2202FA03F3DB43BA69D9
:103BF0001340BB613B681A69FB6903F007039B0034
:103C000002FA03F3BA691343BB61FB69DA087B6804
:103C10000832B96943F822107B681B68BB61FB69F5
:103C20005B00032202FA03F3DB43BA691340BB6172
:103C30003B685B6803F00302FB695B0002FA03F375
:103C4000BA691343BB617B68BA691A603B685B68F9
:103C500003F44033002B00F0C0800023FB60664B70
:103C60005B6C654A43F480435364634B5B6C03F4C1
:103C70008043FB60FB68614AFB699B08023352F892
:103C80002330BB61FB6903F003039B000F2202FAA0
:103C900003F3DB43BA691340BB617B68584A934224
:103CA00037D07B68574A934231D07B68564A93425B
:103CB0002BD07B68554A934225D07B68544A934267
:103CC0001FD07B68534A934219D07B68524A934273
:103CD00013D07B68514A93420DD07B68504A93427F
:103CE00007D07B684F4A934201D1092312E00A238F
:103CF00010E008230EE007230CE006230AE005236A
:103D000008E0042306E0032304E0022302E0012389
:103D100000E00023FA6902F0030292009340BA69BE
:103D20001343BB613549FB699B080233BA6941F80B
:103D300023203D4B9B68BB613B69DB43BA69134061
:103D4000BB613B685B6803F48013002B03D0BA6946
:103D50003B691343BB61344ABB699360324BDB68F8
:103D6000BB613B69DB43BA691340BB613B685B687D
:103D700003F40013002B03D0BA693B691343BB6102
:103D8000294ABB69D360284B5B68BB613B69DB4355
:103D9000BA691340BB613B685B6803F40033002BD6
:103DA00003D0BA693B691343BB611F4ABB695360C7
:103DB0001D4B1B68BB613B69DB43BA691340BB61A8
:103DC0003B685B6803F48033002B03D0BA693B691E
:103DD0001343BB61144ABB691360FB690133FB6188
:103DE000FB690F2B7FF684AE00BF00BF2437BD46B2
:103DF0005DF8047B704700BF003802400038014086
:103E0000000002400004024000080240000C024092
:103E1000001002400014024000180240001C024042
:103E20000020024000240240003C014080B485B0E4
:103E300000AF78600B467B807B681A697B881340F3
:103E4000002B02D00123FB7301E00023FB73FB7BFB
:103E500018461437BD465DF8047B704780B483B0C4
:103E600000AF78600B467B8013467B707B78002B1D
:103E700003D07A887B689A6103E07B881A047B68A8
:103E80009A6100BF0C37BD465DF8047B704780B473
:103E900083B000AF786039607B6893F83D30DBB267
:103EA000202B29D17B68242283F83D207B681B6866
:103EB0001A687B681B6822F001021A607B681B6825
:103EC0005A6A7B681B6822F010025A627B681B6882
:103ED000596A7B681B683A680A435A627B681B68A8
:103EE0001A687B681B6842F001021A607B68202216
:103EF00083F83D20002300E0022318460C37BD461E
:103F00005DF8047B704780B485B000AF786039609D
:103F10000023FB817B6893F83D30DBB2202B2AD154
:103F20007B68242283F83D207B681B681A687B68C5
:103F30001B6822F001021A607B681B685B6AFB81C8
:103F4000FB8923F00F03FB813B689AB2FB89134383
:103F5000FB817B681B68FA895A627B681B681A6858
:103F60007B681B6842F001021A607B68202283F89C
:103F70003D20002300E0022318461437BD465DF8BB
:103F8000047B704780B584B000AF78607B68002BFD
:103F900001D101232BE17B6893F83D30DBB2002B8C
:103FA00006D17B68002283F83C207868FCF7B4FBDC
:103FB0007B68242283F83D207B681B681A687B6835
:103FC0001B6822F001021A607B681B681A687B6814
:103FD0001B6842F400421A607B681B681A687B68A1
:103FE0001B6822F400421A6001F0DAF8F8607B687E
:103FF0005B68814A934207D8FB68804A934294BF2A
:1040000001230023DBB206E0FB687D4A934294BFA4
:1040100001230023DBB2002B01D00123E7E0FB6882
:10402000784AA2FB03239B0CBB607B681B685B6820
:1040300023F03F017B681B68BA680A435A607B68BB
:104040001B681B6A23F03F017B685B686A4A9342E6
:1040500002D8BB68013309E0BB684FF4967202FBDB
:1040600003F3694AA2FB03239B0901337A681268B0
:104070000B4313627B681B68DB6923F44F4222F019
:10408000FF027B685B685C498B4219D8FB68591E4C
:104090007B685B685B00B1FBF3F3591C40F6FC7373
:1040A0000B40002B0AD0FB68591E7B685B685B00E5
:1040B000B1FBF3F30133C3F30B0351E004234FE0EF
:1040C0007B689B68002B11D1FB68581E7B68596880
:1040D0000B465B000B44B0FBF3F30133C3F30B035C
:1040E000002B0CBF01230023DBB212E0FB68581E3B
:1040F0007B6859680B469B000B4499000B44B0FB4E
:10410000F3F30133C3F30B03002B0CBF0123002394
:10411000DBB2002B01D0012322E07B689B68002BDF
:104120000ED1FB68581E7B6859680B465B000B4438
:10413000B0FBF3F30133C3F30B0343F400430FE08D
:10414000FB68581E7B6859680B469B000B4499001E
:104150000B44B0FBF3F30133C3F30B0343F44043CD
:10416000796809681343CB617B681B681B6823F07F
:10417000C0017B68DA697B681B6A1A437B681B682D
:104180000A431A607B681B689B6823F4034323F08F
:10419000FF037A6811697A68D26811437A681268F5
:1041A0000B4393607B681B68DB6823F0FF017B682F
:1041B0005A697B689B691A437B681B680A43DA600B
:1041C0007B681B681A687B681B6842F001021A60F2
:1041D0007B6800221A647B68202283F83D207B687C
:1041E00000221A637B68002283F83E2000231846D1
:1041F0001037BD4680BD00BFA08601007F841E0031
:10420000FF083D0083DE1B43D34D621080B588B0AC
:1042100002AFF8607A601A460B467B8113463B81F9
:1042200001F088FF7861FB6893F83D30DBB2202B0A
:1042300040F0E0807B690093192301227049F868FF
:1042400000F064F90346002B01D00223D3E0FB68A1
:1042500093F83C30012B01D10223CCE0FB68012212
:1042600083F83C20FB681B681B6803F00103012BEB
:1042700007D0FB681B681A68FB681B6842F00102E4
:104280001A60FB681B681A68FB681B6822F40062EE
:104290001A60FB68212283F83D20FB68102283F816
:1042A0003E20FB6800221A64FB687A685A62FB6849
:1042B0003A895A85FB685B8D9AB2FB681A85FB6860
:1042C000504ADA6279897B693A6AF86800F09CF8AA
:1042D0000346002B01D001238DE000233B61FB68E6
:1042E0001B685B693B61FB681B689B693B613B69C1
:1042F00066E07A69396AF86800F022FA0346002B12
:104300000DD0FB681B6C042B07D1FB681B681A6877
:10431000FB681B6842F400721A6001236BE0FB68C3
:104320005B6A1A78FB681B681A61FB685B6A5A1C37
:10433000FB685A62FB685B8D9BB2013B9AB2FB68DB
:104340005A85FB681B8D013B9AB2FB681A85FB6896
:104350001B685B6903F00403042B1BD1FB681B8DF6
:10436000002B17D0FB685B6A1A78FB681B681A6120
:10437000FB685B6A5A1CFB685A62FB685B8D9BB2E8
:10438000013B9AB2FB685A85FB681B8D013B9AB2D0
:10439000FB681A857A69396AF86800F019FA0346E9
:1043A000002B0DD0FB681B6C042B07D1FB681B682E
:1043B0001A68FB681B6842F400721A6001231AE055
:1043C000FB681B8D002B94D1FB681B681A68FB6887
:1043D0001B6842F400721A60FB68202283F83D20BB
:1043E000FB68002283F83E20FB68002283F83C2013
:1043F000002300E0022318461837BD4680BD00BFE9
:10440000020010000000FFFF80B588B002AFF86026
:104410007A603B600B467B81FB68DB6A7B617B6972
:10442000082B06D07B69012B03D07B6913F5803FF5
:1044300008D1FB681B681A68FB681B6842F480722D
:104440001A600BE0FB681B6B122B07D1FB681B6823
:104450001A68FB681B6842F480721A603B6800931C
:104460007B6800224FF00111F86800F04FF8034616
:10447000002B0DD0FB681B681B6803F48073B3F539
:10448000807F03D1FB684FF400721A64032335E088
:10449000FB681B69B3F5804F08D17B89DBB21A46F4
:1044A000FB681B6802F0FE021A611BE07B89DB11CE
:1044B000DBB203F00603DBB263F00F03DAB2FB6892
:1044C0001B681A613B687A680E49F86800F098F832
:1044D0000346002B01D0012310E07B89DAB2FB6890
:1044E0001B681A613B687A680749F86800F088F829
:1044F0000346002B01D0012300E0002318461837A3
:10450000BD4680BD080001000200010080B584B0F6
:1045100000AFF860B9603B601346FB7148E03B6850
:10452000B3F1FF3F44D001F005FE0246BB69D31A48
:104530003A689A4202D33B68002B39D1BB681B0C06
:10454000DBB2012B0DD1FB681B685B69DA43BB68EA
:1045500013409BB2002B0CBF01230023DBB21A4691
:104560000CE0FB681B689B69DA43BB6813409BB295
:10457000002B0CBF01230023DBB21A46FB799A42C1
:1045800016D1FB6800221A63FB68202283F83D20C5
:10459000FB68002283F83E20FB681B6C43F020027E
:1045A000FB681A64FB68002283F83C20012323E0A7
:1045B000BB681B0CDBB2012B0DD1FB681B685B6970
:1045C000DA43BB6813409BB2002B0CBF01230023CE
:1045D000DBB21A460CE0FB681B689B69DA43BB68D8
:1045E00013409BB2002B0CBF01230023DBB21A4601
:1045F000FB799A4293D0002318461037BD4680BD00
:1046000080B584B000AFF860B9607A603B6071E05B
:10461000FB681B685B6903F48063B3F5806F23D18B
:10462000FB681B681A68FB681B6842F400721A601A
:10463000FB681B686FF480625A61FB6800221A6392
:10464000FB68202283F83D20FB68002283F83E208F
:10465000FB681B6C43F00402FB681A64FB680022D1
:1046600083F83C20012367E07B68B3F1FF3F41D032
:1046700001F060FD02463B68D31A7A689A4202D381
:104680007B68002B36D1BB681B0CDBB2012B0CD135
:10469000FB681B685B69DA43BB6813409BB2002B65
:1046A00014BF01230023DBB20BE0FB681B689B698E
:1046B000DA43BB6813409BB2002B14BF01230023D5
:1046C000DBB2002B16D0FB6800221A63FB682022A5
:1046D00083F83D20FB68002283F83E20FB681B6CBA
:1046E00043F02002FB681A64FB68002283F83C2038
:1046F000012321E0BB681B0CDBB2012B0CD1FB6852
:104700001B685B69DA43BB6813409BB2002B14BF84
:1047100001230023DBB20BE0FB681B689B69DA43D3
:10472000BB6813409BB2002B14BF01230023DBB2F4
:10473000002B7FF46DAF002318461037BD4680BDB7
:1047400080B584B000AFF860B9607A6034E0F86892
:1047500000F086F80346002B01D0012334E0BB684B
:10476000B3F1FF3F28D001F0E5FC02467B68D31A85
:10477000BA689A4202D3BB68002B1DD1FB681B6844
:104780005B6903F08003802B16D0FB6800221A635C
:10479000FB68202283F83D20FB68002283F83E203E
:1047A000FB681B6C43F02002FB681A64FB68002264
:1047B00083F83C20012307E0FB681B685B6903F07A
:1047C0008003802BC3D1002318461037BD4680BD1F
:1047D00080B584B000AFF860B9607A6034E0F86802
:1047E00000F03EF80346002B01D0012334E0BB6803
:1047F000B3F1FF3F28D001F09DFC02467B68D31A3D
:10480000BA689A4202D3BB68002B1DD1FB681B68B3
:104810005B6903F00403042B16D0FB6800221A63C3
:10482000FB68202283F83D20FB68002283F83E20AD
:10483000FB681B6C43F02002FB681A64FB680022D3
:1048400083F83C20012307E0FB681B685B6903F0E9
:104850000403042BC3D1002318461037BD4680BD86
:1048600080B483B000AF78607B681B685B6903F439
:104870008063B3F5806F1BD17B681B686FF4806227
:104880005A617B6800221A637B68202283F83D20EE
:104890007B68002283F83E207B681B6C43F0040297
:1048A0007B681A647B68002283F83C20012300E0C7
:1048B000002318460C37BD465DF8047B70470000A6
:1048C00080B586B000AF78607B68002B01D10123F2
:1048D00067E27B681B6803F00103002B75D0884BEF
:1048E0009B6803F00C03042B0CD0854B9B6803F0F2
:1048F0000C03082B12D1824B5B6803F48003B3F5E1
:10490000800F0BD17E4B1B6803F40033002B5BD070
:104910007B685B68002B57D1012342E27B685B68B0
:10492000B3F5803F06D1764B1B68754A43F480335C
:1049300013601DE07B685B68B3F5A02F0CD1704B52
:104940001B686F4A43F4802313606D4B1B686C4AED
:1049500043F4803313600BE0694B1B68684A23F40F
:1049600080331360664B1B68654A23F48023136011
:104970007B685B68002B13D001F0DCFB386108E03A
:1049800001F0D8FB02463B69D31A642B01D90323FB
:1049900007E25B4B1B6803F40033002BF0D014E0FC
:1049A00001F0C8FB386108E001F0C4FB02463B6936
:1049B000D31A642B01D90323F3E1514B1B6803F491
:1049C0000033002BF0D100E000BF7B681B6803F0D0
:1049D0000203002B63D04A4B9B6803F00C03002BAF
:1049E0000BD0474B9B6803F00C03082B1CD1444BA6
:1049F0005B6803F48003002B16D1414B1B6803F066
:104A00000203002B05D07B68DB68012B01D001235A
:104A1000C7E13B4B1B6823F0F8027B681B69DB0096
:104A2000374913430B603AE07B68DB68002B20D0EA
:104A3000344B01221A6001F07DFB386108E001F07F
:104A400079FB02463B69D31A022B01D90323A8E163
:104A50002B4B1B6803F00203002BF0D0284B1B6884
:104A600023F0F8027B681B69DB00254913430B60C8
:104A700015E0244B00221A6001F05CFB386108E06D
:104A800001F058FB02463B69D31A022B01D90323DC
:104A900087E11B4B1B6803F00203002BF0D17B68FE
:104AA0001B6803F00803002B36D07B685B69002B82
:104AB00016D0154B01221A6001F03CFB386108E06A
:104AC00001F038FB02463B69D31A022B01D90323BC
:104AD00067E10B4B5B6F03F00203002BF0D01BE090
:104AE000094B00221A6001F025FB38610EE001F04D
:104AF00021FB02463B69D31A022B07D9032350E15D
:104B00000038024000004742800E4742884B5B6FEE
:104B100003F00203002BEAD17B681B6803F0040357
:104B2000002B00F097800023FB75814B1B6C03F07A
:104B30008053002B0FD10023BB607D4B1B6C7C4A44
:104B400043F0805313647A4B1B6C03F08053BB60BB
:104B5000BB680123FB75774B1B6803F48073002B44
:104B600018D1744B1B68734A43F48073136001F0CF
:104B7000E1FA386108E001F0DDFA02463B69D31A38
:104B8000022B01D903230CE16A4B1B6803F48073E9
:104B9000002BF0D07B689B68012B06D1644B1B6F08
:104BA000634A43F0010313671CE07B689B68052B95
:104BB0000CD15F4B1B6F5E4A43F0040313675C4BE1
:104BC0001B6F5B4A43F0010313670BE0584B1B6FED
:104BD000574A23F001031367554B1B6F544A23F0C8
:104BE000040313677B689B68002B15D001F0A2FAC1
:104BF00038610AE001F09EFA02463B69D31A41F29D
:104C00008832934201D90323CBE0494B1B6F03F059
:104C10000203002BEED014E001F08CFA38610AE0B8
:104C200001F088FA02463B69D31A41F28832934276
:104C300001D90323B5E03E4B1B6F03F00203002BA9
:104C4000EED1FB7D012B05D1394B1B6C384A23F08B
:104C5000805313647B689B69002B00F0A180344B68
:104C60009B6803F00C03082B5CD07B689B69022BCC
:104C700041D1314B00221A6001F05CFA386108E042
:104C800001F058FA02463B69D31A022B01D90323DB
:104C900087E0274B1B6803F00073002BF0D17B6883
:104CA000DA697B681B6A1A437B685B6A9B011A435B
:104CB0007B689B6A5B08013B1B041A437B68DB6AC9
:104CC0001B061B4913434B601B4B01221A6001F06A
:104CD00031FA386108E001F02DFA02463B69D31A37
:104CE000022B01D903235CE0114B1B6803F0007316
:104CF000002BF0D054E0104B00221A6001F01AFA99
:104D0000386108E001F016FA02463B69D31A022B1B
:104D100001D9032345E0064B1B6803F00073002B09
:104D2000F0D13DE07B689B69012B07D1012338E07E
:104D30000038024000700040600047421B4B5B6837
:104D4000FB607B689B69012B28D0FB6803F4800221
:104D50007B68DB699A4221D1FB6803F03F027B68E4
:104D60001B6A9A421AD1FA6847F6C07313407A68F0
:104D7000526A9201934211D1FB6803F440327B687E
:104D80009B6A5B08013B1B049A4207D1FB6803F056
:104D900070627B68DB6A1B069A4201D0012300E047
:104DA000002318461837BD4680BD00BF00380240BA
:104DB00080B584B000AF786039607B68002B01D18A
:104DC0000123CCE0684B1B6803F00F033A689A425A
:104DD0000CD9654B3A68D2B21A70634B1B6803F06A
:104DE0000F033A689A4201D00123B8E07B681B6840
:104DF00003F00203002B20D07B681B6803F0040340
:104E0000002B05D0594B9B68584A43F4E0539360FC
:104E10007B681B6803F00803002B05D0534B9B688D
:104E2000524A43F460439360504B9B6823F0F00276
:104E30007B689B684D4913438B607B681B6803F05C
:104E40000103002B44D07B685B68012B07D1474BE3
:104E50001B6803F40033002B19D101237FE07B682A
:104E60005B68022B03D07B685B68032B07D13F4B49
:104E70001B6803F00073002B09D101236FE03B4B4B
:104E80001B6803F00203002B01D1012367E0374BBD
:104E90009B6823F003027B685B68344913438B6093
:104EA00001F048F9F8600AE001F044F90246FB68B5
:104EB000D31A41F28832934201D903234FE02B4B9E
:104EC0009B6803F00C027B685B689B009A42EBD105
:104ED000254B1B6803F00F033A689A420CD2224B11
:104EE0003A68D2B21A70204B1B6803F00F033A687D
:104EF0009A4201D0012332E07B681B6803F004036F
:104F0000002B08D0194B9B6823F4E0527B68DB68C8
:104F1000164913438B607B681B6803F00803002B62
:104F200009D0124B9B6823F460427B681B69DB004D
:104F30000E4913438B6000F021F802460B4B9B682F
:104F40001B0903F00F030A49CB5C22FA03F3094A59
:104F50001360094B1B681846FBF7B0FD0023184689
:104F60001037BD4680BD00BF003C02400038024003
:104F7000AC92000800000020080000202DE9B04F8E
:104F800094B000AF00237B640023FB6400233B64E8
:104F90000023BB64794B9B6803F00C03082B0DD0F6
:104FA000082B00F2E180002B02D0042B03D0DBE0C1
:104FB000734BBB64DBE0734BBB64D8E06F4B5B6847
:104FC00003F03F037B646D4B5B6803F48003002BAD
:104FD00063D06A4B5B689B090022BB63FA63BB6BBF
:104FE000C3F308033B6300237B63D7E90C452246E8
:104FF0002B464FF000004FF00001590141EAD26109
:10500000500102460B462146511A3961294663EB8D
:1050100001037B614FF000024FF00003D7E904ABBE
:1050200059468B01514643EA916351468A015146E4
:10503000B2EB0108594663EB01094FF000024FF053
:1050400000034FEAC90343EA58734FEAC802904687
:105050009946234618EB0303BB602B4649EB030339
:10506000FB604FF000024FF00003D7E902452946EC
:105070004B02214643EAD15321464A0210461946C3
:105080007B6C0022BB62FA62D7E90A23FBF7B0F817
:1050900002460B461346FB6458E0384B5B689B099D
:1050A000002218461146C0F308033B6200237B62CE
:1050B000D7E9088942464B464FF000004FF0000107
:1050C000590141EAD261500102460B464146B2EB1A
:1050D000010A494663EB010B4FF000024FF0000359
:1050E0004FEA8B1343EA9A634FEA8A12B2EB0A043F
:1050F00063EB0B054FF000024FF00003EB0043EAB7
:105100005473E20014461D464346E3183B604B4689
:1051100045EB03037B604FF000024FF00003D7E93B
:10512000004529468B02214643EA915321468A02D3
:10513000104619467B6C0022BB61FA61D7E9062351
:10514000FBF756F802460B461346FB640B4B5B68B5
:105150001B0C03F0030301335B003B64FA6C3B6CF4
:10516000B2FBF3F3BB6402E0054BBB6400BFBB6C56
:1051700018465037BD46BDE8B08F00BF003802402A
:105180000024F40000127A0080B400AF034B1B68C7
:105190001846BD465DF8047B704700BF0000002044
:1051A00080B500AFFFF7F0FF0246054B9B689B0AF6
:1051B00003F007030349CB5C22FA03F3184680BDD2
:1051C00000380240BC92000880B500AFFFF7DCFF5A
:1051D0000246054B9B685B0B03F007030349CB5C5E
:1051E00022FA03F3184680BD00380240BC92000842
:1051F00080B483B000AF786039607B680F221A609A
:10520000124B9B6803F003027B685A600F4B9B684C
:1052100003F0F0027B689A600C4B9B6803F4E05249
:105220007B68DA60094B9B68DB0803F4E0527B681B
:105230001A61074B1B6803F00F023B681A6000BF3E
:105240000C37BD465DF8047B704700BF0038024054
:10525000003C024080B485B000AF786039607B6864
:1052600093F83C30012B01D102235AE07B680122E4
:1052700083F83C207B68022283F83D207B681B6812
:105280005B68FB607B681B689B68BB60FB6823F006
:105290007003FB603B681B68FA681343FB607B6824
:1052A0001B68FA685A607B681B68214A934222D0C7
:1052B0007B681B68B3F1804F1DD07B681B681D4A5B
:1052C000934218D07B681B681B4A934213D07B68BB
:1052D0001B681A4A93420ED07B681B68184A934297
:1052E00009D07B681B68174A934204D07B681B680F
:1052F000154A93420CD1BB6823F08003BB603B6826
:105300005B68BA681343BB607B681B68BA689A60C5
:105310007B68012283F83D207B68002283F83C20D3
:10532000002318461437BD465DF8047B704700BF64
:10533000000001400004004000080040000C004054
:1053400000040140004001400018004080B483B0D8
:1053500000AF786000BF0C37BD465DF8047B704736
:1053600080B483B000AF786000BF0C37BD465DF8F5
:10537000047B704780B582B000AF78607B68002BFB
:1053800001D1012341E07B6893F83D30DBB2002B73
:1053900006D17B68002283F83C207868FBF724FD67
:1053A0007B68022283F83D207B681A687B6804339F
:1053B0001946104600F07EFA7B68012283F84620E9
:1053C0007B68012283F83E207B68012283F83F201E
:1053D0007B68012283F840207B68012283F841200A
:1053E0007B68012283F842207B68012283F84320F6
:1053F0007B68012283F844207B68012283F84520E2
:105400007B68012283F83D20002318460837BD46FB
:1054100080BD000080B485B000AF78607B6893F8F1
:105420003D30DBB2012B01D001234EE07B6802222C
:1054300083F83D207B681B68DA687B681B6842F054
:105440000102DA607B681B68234A934222D07B68A2
:105450001B68B3F1804F1DD07B681B681F4A9342C5
:1054600018D07B681B681E4A934213D07B681B6868
:105470001C4A93420ED07B681B681B4A934209D09A
:105480007B681B68194A934204D07B681B68184AE2
:10549000934211D17B681B689B6803F00703FB6094
:1054A000FB68062B10D07B681B681A687B681B683A
:1054B00042F001021A6007E07B681B681A687B688B
:1054C0001B6842F001021A60002318461437BD46DB
:1054D0005DF8047B704700BF0000014000040040FD
:1054E00000080040000C0040000401400040014062
:1054F0000018004080B584B000AF78607B681B68FE
:10550000DB68FB607B681B681B69BB60BB6803F0E2
:105510000203002B20D0FB6803F00203002B1BD0FA
:105520007B681B686FF002021A617B6801221A77A0
:105530007B681B689B6903F00303002B03D078682A
:1055400000F099F905E0786800F08BF9786800F0D0
:105550009CF97B6800221A77BB6803F00403002BD8
:1055600020D0FB6803F00403002B1BD07B681B6872
:105570006FF004021A617B6802221A777B681B684D
:105580009B6903F44073002B03D0786800F073F933
:1055900005E0786800F065F9786800F076F97B68D6
:1055A00000221A77BB6803F00803002B20D0FB68A9
:1055B00003F00803002B1BD07B681B686FF0080208
:1055C0001A617B6804221A777B681B68DB6903F029
:1055D0000303002B03D0786800F04DF905E07868EC
:1055E00000F03FF9786800F050F97B6800221A77E4
:1055F000BB6803F01003002B20D0FB6803F01003FE
:10560000002B1BD07B681B686FF010021A617B684F
:1056100008221A777B681B68DB6903F44073002B50
:1056200003D0786800F027F905E0786800F019F9F0
:10563000786800F02AF97B6800221A77BB6803F0CB
:105640000103002B0CD0FB6803F00103002B07D0F3
:105650007B681B686FF001021A617868FBF7EAF952
:10566000BB6803F08003002B0CD0FB6803F08003C1
:10567000002B07D07B681B686FF080021A61786886
:10568000FFF76EFEBB6803F04003002B0CD0FB68F5
:1056900003F04003002B07D07B681B686FF04002CB
:1056A0001A61786800F0FBF8BB6803F02003002B58
:1056B0000CD0FB6803F02003002B07D07B681B682D
:1056C0006FF020021A617868FFF740FE00BF1037C4
:1056D000BD4680BD80B584B000AF786039600023DE
:1056E000FB737B6893F83C30012B01D10223B4E0BB
:1056F0007B68012283F83C207B68022283F83D20EE
:105700007B681B689B68BB60BB6823F07703BB604A
:10571000BB6823F47F43BB607B681B68BA689A60F0
:105720003B681B68B3F5005F3ED0B3F5005F00F245
:105730008780B3F5805F00F08680B3F5805F7FD807
:10574000702B1AD0702B7BD8602B50D0602B77D861
:10575000502B3CD0502B73D8402B58D0402B6FD8B7
:10576000302B64D0302B6BD8202B60D0202B67D807
:10577000002B5CD0102B5AD062E07B6818683B6825
:1057800099683B685A683B68DB6800F0B9F97B6848
:105790001B689B68BB60BB6843F07703BB607B689A
:1057A0001B68BA689A604FE07B6818683B68996824
:1057B0003B685A683B68DB6800F0A2F97B681B68AD
:1057C0009A687B681B6842F480429A603CE07B6880
:1057D00018683B6859683B68DB681A4600F016F9A0
:1057E0007B681B685021184600F06FF92CE07B683D
:1057F00018683B6859683B68DB681A4600F035F961
:105800007B681B686021184600F05FF91CE07B682C
:1058100018683B6859683B68DB681A4600F0F6F880
:105820007B681B684021184600F04FF90CE07B684C
:105830001A683B681B681946104600F046F903E0F9
:105840000123FB7300E000BF7B68012283F83D2049
:105850007B68002283F83C20FB7B18461037BD464E
:1058600080BD80B483B000AF786000BF0C37BD4608
:105870005DF8047B704780B483B000AF786000BFF0
:105880000C37BD465DF8047B704780B483B000AF31
:10589000786000BF0C37BD465DF8047B704780B46C
:1058A00083B000AF786000BF0C37BD465DF8047B65
:1058B0007047000080B485B000AF786039607B68C5
:1058C0001B68FB607B68464A934213D07B68B3F148
:1058D000804F0FD07B68434A93420BD07B68424A8B
:1058E000934207D07B68414A934203D07B68404A89
:1058F000934208D1FB6823F07003FB603B685B6850
:10590000FA681343FB607B68354A93422BD07B686F
:10591000B3F1804F27D07B68324A934223D07B6813
:10592000314A93421FD07B68304A93421BD07B6838
:105930002F4A934217D07B682E4A934213D07B683C
:105940002D4A93420FD07B682C4A93420BD07B6840
:105950002B4A934207D07B682A4A934203D07B6844
:10596000294A934208D1FB6823F44073FB603B68EB
:10597000DB68FA681343FB60FB6823F080023B6836
:105980005B691343FB607B68FA681A603B689A683E
:105990007B68DA623B681A687B689A627B68104AA7
:1059A000934203D07B68124A934203D13B681A6941
:1059B0007B681A637B6801225A617B681B6903F06C
:1059C0000103012B05D17B681B6923F001027B6871
:1059D0001A6100BF1437BD465DF8047B704700BFF5
:1059E000000001400004004000080040000C00409E
:1059F00000040140004001400044014000480140D3
:105A000000180040001C00400020004080B487B017
:105A100000AFF860B9607A60FB681B6A7B61FB6865
:105A20001B6A23F00102FB681A62FB689B693B61F9
:105A30003B6923F0F0033B617B681B013A69134328
:105A40003B617B6923F00A037B617A69BB6813437E
:105A50007B61FB683A699A61FB687A691A6200BFE8
:105A60001C37BD465DF8047B704780B487B000AF3B
:105A7000F860B9607A60FB681B6A7B61FB681B6A2F
:105A800023F01002FB681A62FB689B693B613B696B
:105A900023F470433B617B681B033A6913433B610A
:105AA0007B6923F0A0037B61BB681B017A69134308
:105AB0007B61FB683A699A61FB687A691A6200BF88
:105AC0001C37BD465DF8047B704780B485B000AFDD
:105AD000786039607B689B68FB60FB6823F070032B
